:020000040800F2
:1000000000000220B9120008E5100008E7100008FF
:10001000E9100008EB100008ED10000800000000D7
:10002000000000000000000000000000015800086F
:10003000EF10000800000000A1580008F1100008AF
:100040000913000809130008091300080913000820
:100050000913000809130008091300080913000810
:100060000913000809130008091300080913000800
:1000700009130008091300080913000809130008F0
:1000800009130008091300080913000809130008E0
:1000900009130008091300080913000809130008D0
:1000A00009130008091300080913000809130008C0
:1000B00009130008091300080913000809130008B0
:1000C00009130008091300080913000809130008A0
:1000D0000913000809130008091300080913000890
:1000E0000913000809130008091300080913000880
:1000F0000913000809130008091300080913000870
:10010000091300080913000809130008091300085F
:10011000091300080913000809130008091300084F
:10012000091300080913000809130008091300083F
:10013000091300080913000809130008091300082F
:100140000913000809130008091300080911000821
:10015000091300080913000809130008091300080F
:1001600009130008091300080913000809130008FF
:100170000913000809130008091300080000000013
:0801800009130008091300082F
:1001C00010B5054C237833B9044B13B10448AFF391
:1001D00000800123237010BD74080020000000007F
:1001E000D085000808B5034B1BB103490348AFF3A2
:1001F000008008BD0000000078080020D0850008BD
:1002000053B94AB9002908BF00281CBF4FF0FF317D
:100210004FF0FF3000F074B9ADF1080C6DE904CE79
:1002200000F006F8DDF804E0DDE9022304B07047D1
:100230002DE9F047089D04468E46002B4DD18A4299
:10024000944669D9B2FA82F252B101FA02F3C2F1CC
:10025000200120FA01F10CFA02FC41EA030E94405D
:100260004FEA1C48210CBEFBF8F61FFA8CF708FB7E
:1002700016E341EA034306FB07F199420AD91CEB56
:10028000030306F1FF3080F01F81994240F21C8188
:10029000023E63445B1AA4B2B3FBF8F008FB1033D0
:1002A00044EA034400FB07F7A7420AD91CEB040405
:1002B00000F1FF3380F00A81A74240F207816444D5
:1002C000023840EA0640E41B00261DB1D44000235A
:1002D000C5E900433146BDE8F0878B4209D9002DBE
:1002E00000F0EF800026C5E9000130463146BDE848
:1002F000F087B3FA83F6002E4AD18B4202D38242B2
:1003000000F2F980841A61EB030301209E46002D60
:10031000E0D0C5E9004EDDE702B9FFDEB2FA82F2B5
:10032000002A40F09280A1EB0C014FEA1C471FFA13
:100330008CFE0126200CB1FBF7F307FB131140EAFA
:1003400001410EFB03F0884208D91CEB010103F1C7
:10035000FF3802D2884200F2CB804346091AA4B289
:10036000B1FBF7F007FB101144EA01440EFB00FE5D
:10037000A64508D91CEB040400F1FF3102D2A645C2
:1003800000F2BB800846A4EB0E0440EA03409CE761
:10039000C6F12007B34022FA07FC4CEA030C20FA0E
:1003A00007F401FA06F31C43F9404FEA1C4900FA2E
:1003B00006F3B1FBF9F8200C1FFA8CFE09FB1811AB
:1003C00040EA014108FB0EF0884202FA06F20BD91E
:1003D0001CEB010108F1FF3A80F08880884240F26E
:1003E0008580A8F102086144091AA4B2B1FBF9F0B2
:1003F00009FB101144EA014100FB0EFE8E4508D9AD
:100400001CEB010100F1FF346CD28E456AD9023831
:10041000614440EA0840A0FB0294A1EB0E01A14216
:10042000C846A64656D353D05DB1B3EB080261EB84
:100430000E0101FA07F722FA06F3F1401F43C5E95E
:10044000007100263146BDE8F087C2F12003D84094
:100450000CFA02FC21FA03F3914001434FEA1C47D6
:100460001FFA8CFEB3FBF7F007FB10360B0C43EAC8
:10047000064300FB0EF69E4204FA02F408D91CEB78
:10048000030300F1FF382FD29E422DD90238634476
:100490009B1B89B2B3FBF7F607FB163341EA034116
:1004A00006FB0EF38B4208D91CEB010106F1FF3865
:1004B00016D28B4214D9023E6144C91A46EA00465C
:1004C00038E72E46284605E70646E3E61846F8E6EE
:1004D0004B45A9D2B9EB020864EB0C0E0138A3E737
:1004E0004646EAE7204694E74046D1E7D0467BE718
:1004F000023B614432E7304609E76444023842E790
:10050000704700BF844641EA000313F003036DD136
:10051000403A41D351F8043B40F8043B51F8043BC6
:1005200040F8043B51F8043B40F8043B51F8043BCD
:1005300040F8043B51F8043B40F8043B51F8043BBD
:1005400040F8043B51F8043B40F8043B51F8043BAD
:1005500040F8043B51F8043B40F8043B51F8043B9D
:1005600040F8043B51F8043B40F8043B51F8043B8D
:1005700040F8043B51F8043B40F8043B51F8043B7D
:1005800040F8043B51F8043B40F8043B51F8043B6D
:1005900040F8043B403ABDD2303211D351F8043B0D
:1005A00040F8043B51F8043B40F8043B51F8043B4D
:1005B00040F8043B51F8043B40F8043B103AEDD2BC
:1005C0000C3205D351F8043B40F8043B043AF9D20D
:1005D000043208D0D2071CBF11F8013B00F8013BE0
:1005E00001D30B8803806046704700BF082A13D3ED
:1005F0008B078DD010F003038AD0C3F10403D21A05
:10060000DB071CBF11F8013B00F8013B80D331F838
:10061000023B20F8023B7BE7043AD9D3013A11F8B8
:10062000013B00F8013BF9D20B7803704B78437023
:100630008B78837060467047000000000000000067
:1006400090F800F06DE9024520F007016FF0000C12
:1006500010F0070491F820F040F049804FF00004BA
:100660006FF00700D1E9002391F840F000F1080095
:1006700082FA4CF2A4FA8CF283FA4CF3A2FA8CF3CD
:100680004BBBD1E9022382FA4CF200F10800A4FA34
:100690008CF283FA4CF3A2FA8CF3E3B9D1E9042388
:1006A00082FA4CF200F10800A4FA8CF283FA4CF3BF
:1006B000A2FA8CF37BB9D1E9062301F1200182FA79
:1006C0004CF200F10800A4FA8CF283FA4CF3A2FA7F
:1006D0008CF3002BC6D0002A04BF04301A4612BA8D
:1006E000B2FA82F2FDE8024500EBD2007047D1E990
:1006F000002304F00305C4F100004FEAC50514F01F
:10070000040F91F840F00CFA05F562EA05021CBFEF
:1007100063EA050362464FF00004A9E7431103F4BE
:10072000E063C0F381021343820392B213430A4988
:100730004A6922F4E06222F003029204920C13430D
:100740004B614FF6807303EAC000044A536903F01B
:100750007F03184350617047000C024000100240B4
:1007600010B5084A536943F008035361064C6369A6
:1007700023F0A0036361FFF7D1FF636943F0A00397
:10078000636110BD00100240000C024010B5084A21
:10079000536923F008035361064C636923F0A003F7
:1007A0006361FFF7BBFF636943F0A003636110BDA2
:1007B00000100240000C024010B50C46FFF7E6FFA7
:1007C0002046FFF7CDFF10BD10B50C4681B24E207C
:1007D000FFF7F2FFA1B24F20FFF7EEFF10BD0000C0
:1007E00010B5044600210846FFF7EEFF2220FFF770
:1007F000CDFF012C19D0022C23D054B110BD124BC7
:1008000033F81400FFF7ACFF0134B4F5963FF6DB84
:10081000F4E70024F9E70D4B33F81400FFF7A0FFCD
:100820000134B4F5963FF6DBE8E70024F9E7084B1E
:1008300033F81400FFF794FF0134B4F5963FF6DB6C
:10084000DCE70024F9E700BF1CA600081CFE020834
:100850001C56050810B5044600210846FFF7B4FFF2
:100860002220FFF793FF2046FFF77AFF074909E0B0
:10087000074B5A6922F0A0025A615A6942F0A0025D
:100880005A6101390029F3D110BD00BF012C0100CC
:10089000000C02402DE9F84F8A4690461E46BDF8EE
:1008A0002870450111465046FFF78EFF2220FFF7C2
:1008B0006DFF4FF0000930E03846FFF751FF013C73
:1008C000002C09DB184B5A5D0123A3401342F3D0DF
:1008D0003046FFF745FFF2E705F1010B072403E07F
:1008E0003846FFF73DFF013C002C0ADB0E4B13F8A6
:1008F0000B200123A3401342F2D03046FFF730FF14
:10090000F1E708F1010841465046FFF75DFF22205C
:10091000FFF73CFF023509F10109B9F10F0F01DCC6
:100920000724CDE7BDE8F88F1C8600082DE9F047C5
:1009300082B081460C4616469846BDF828A0FFF7BF
:100940007FFE074600250EE0CDF800A04346324664
:10095000214619F80500FFF79DFF0C34314620466B
:10096000FFF732FF0135BD42EEDB02B0BDE8F08794
:1009700010B53D4C22683D4B134323603C4A11683F
:100980003C4B0B431360636943F400536361636939
:1009900043F010036361636923F0080363616369D3
:1009A00043F00803636101211020FFF705FFB22126
:1009B0001E20FFF701FF06212820FFF7FDFE012181
:1009C0000020FFF7F9FE47F2EF210120FFF7F4FEC8
:1009D0004FF4C0610220FFF7EFFE00211020FFF767
:1009E000EBFE46F670011120FFF7E6FE40F6991186
:1009F0001220FFF7E1FE4FF460512620FFF7DCFEE6
:100A000033210720FFF7D8FE05210C20FFF7D4FE85
:100A10000A210D20FFF7D0FE4FF438510E20FFF7CA
:100A2000CBFE4FF46F414420FFF7C6FE0021452066
:100A3000FFF7C2FE40F23F114620FFF7BDFE002146
:100A40004E20FFF7B9FE00214F20FFF7B5FE636986
:100A500043F080036361636943F0200363614FF6F1
:100A6000FF70FFF7F7FE10BD000C02404545155022
:100A70000010024040405555024A1368013313608C
:100A8000704700BF900900202DE9F04F8DB0002481
:100A90000794089409940A940B940194564B1A6B8A
:100AA00042F010021A631A6B02F010020192019ACE
:100AB00002941A6B42F004021A631A6B02F00402E9
:100AC0000292029A03941A6B42F080021A631A6B24
:100AD00002F080020392039A04941A6B42F001021E
:100AE0001A631A6B02F001020492049A05941A6BBD
:100AF00042F002021A631A6B02F002020592059A92
:100B000006941A6B42F008021A631B6B03F0080389
:100B10000693069B394E22460821304600F0C1FD5F
:100B2000DFF8E09001221146484600F0BAFDDFF8F8
:100B3000D88022464FF21001404600F0B2FD08274F
:100B400007970125089509940A9407A9304600F0F3
:100B5000AFFC0795089509940A9407A9484600F048
:100B6000A7FC07970227089709940A944FF0050AF3
:100B7000CDF82CA007A9484600F09AFC07954FF441
:100B80009019CDF82090099407A91D4800F090FC19
:100B90000423079308940994DFF870B007A9584616
:100BA00000F086FC4FF480630793089709940A9439
:100BB000CDF82CA007A9584600F07AFC4FF210039C
:100BC0000793089509940A9407A9404600F070FC21
:100BD000202307930894099407A9404600F068FC75
:100BE0000797CDF82090099407A9304600F060FCE3
:100BF0000DB0BDE8F08F00BF003802400010024089
:100C00000000024000080240000C024000040240C4
:100C100000B583B006F062FE01224FF400511D487A
:100C200000F03FFD0023019300931BE0019B009324
:100C3000194C4FF0FF31206804F0ECFB00231A46FA
:100C400016491748006804F093FC206804F016FC6D
:100C500012E001224FF480510E4800F022FD1420D2
:100C600004F002FB0F4B1B680193019B009A9B1A37
:100C700041F287329342D9D8094B186804F0FBFC43
:100C80000528E6D000224FF48051024800F009FD0B
:100C9000E5E700BF000C0240980800201CAE0708E2
:100CA000940800209009002072B6FEE708B50A48B3
:100CB0000A4B03600A4B436000238360C3604FF418
:100CC0008042026143618361C361036201F09AFA69
:100CD00000B908BDFFF7E8FF9C0800200054004061
:100CE000A086010008B50A480A4B03604FF4007261
:100CF000426000238360C3600261074A42618361EE
:100D0000C361036201F05CFB00B908BDFFF7CCFFD3
:100D1000F0080020003C00400077010008B50D48B5
:100D20000D4B03604FF48273436000238360C36004
:100D3000036143614FF400728261C36103624362E5
:100D400083620A23C36202F049FA00B908BDFFF7C3
:100D5000ABFF00BF380900200030014000B595B05E
:100D60003022002108A807F0FDF900230393049323
:100D70000593069307930193214A116C41F080512A
:100D80001164126C02F080520192019A02931D4B81
:100D90001A6842F480421A601B6803F4804302938D
:100DA000029B012308934FF48033099302230E938F
:100DB0004FF480020F92082210924FF4A872119201
:100DC00012930723139308A801F0F8FD98B90F2395
:100DD000039302230493002305934FF4A053069337
:100DE0004FF480530793052103A802F04DF820B972
:100DF00015B05DF804FBFFF757FFFFF755FF00BF85
:100E0000003802400070004000B591B0002201217E
:100E1000084604F0A5FA2E4C20600022322105205D
:100E200004F05BFB2B4D28602B4A03AB07CA03C3BE
:100E300023F8022B120C1A70272200210DF1170043
:100E400007F090F94FF0FF31206804F0E3FA002337
:100E50001A4603A9286804F08BFB206804F00EFBF7
:100E600000F07AFAFFF77AFFFFF70EFEFFF71EFF9A
:100E7000FFF738FFFFF752FF04F06AF9174B002223
:100E80000121174804F0FEF9164B1860012104F007
:100E90004DFA154A0021154804F088F9144B1860E2
:100EA000002401940125009523464FF47A721149DC
:100EB000114805F07CFE0194009523464FF47A72A8
:100EC0000E490F4805F073FE04F054F9FEE700BF29
:100ED0009808002094080020E88500088CAE0708D8
:100EE000790A00089409002068AE0708110C000870
:100EF0009008002030AE0708751100083CAE0708C6
:100F00005512000800B583B0002200920D4B596CB9
:100F100041F480415964596C01F480410091009979
:100F20000192196C41F0805119641B6C03F08053DD
:100F30000193019B0F216FF0010000F05FFA03B0F5
:100F40005DF804FB0038024030B589B000230393FC
:100F500004930593069307930268144B9A4201D0B9
:100F600009B030BD00250195114C236B43F00203FD
:100F70002363236B03F002030193019B4FF410736F
:100F8000039312230493012305930423079303A9D6
:100F9000084800F08DFA0295236C43F40013236493
:100FA000236C03F400130293029BD9E70054004022
:100FB000003802400004024070B58CB00023079353
:100FC000089309930A930B93039304930593069351
:100FD0000268254B9A4201D00CB070BD01230393E7
:100FE000C02304930223059303A802F013F80028FA
:100FF00037D1002400941D4B1A6C42F400421A644D
:101000001A6C02F400420092009A01941A6B42F0AA
:1010100001021A631A6B02F001020192019A029412
:101020001A6B42F004021A631B6B03F00403029371
:10103000029B102307930226089609940A9406251A
:101040000B9507A90A4800F033FA4FF4A45307930D
:10105000089609940A940B9507A9064800F028FA07
:10106000BAE7FFF721FEC4E7003C00400038024029
:10107000000002400008024000B589B0002303933D
:1010800004930593069307930268144B9A4202D087
:1010900009B05DF804FB0021019103F584335A6C1B
:1010A00042F480525A645A6C02F480520192019ABE
:1010B00002911A6B42F001021A631B6B03F00103E9
:1010C0000293029BE02303930223049305230793D7
:1010D00003A9034800F0ECF9DAE700BF0030014053
:1010E00000000240FEE7FEE7FEE7FEE7FEE770478E
:1010F00008B500F04BF906F031F8012800D108BD21
:1011000004F000FCFBE7000008B5024800F08FFF88
:1011100008BD00BFFC56002010B503460C4A0D491F
:101120000D48006840B10C4800680344521A9342CD
:1011300006D8094A136010BD0748084C0460F2E75E
:1011400006F026FD0C2303604FF0FF30F3E700BFED
:10115000000002200004000098090020405A0020EE
:10116000034AD2F8883043F47003C2F888307047DD
:1011700000ED00E070B590B0FFF7FAFB4FF6FF709E
:10118000FFF768FB0120FFF72BFB4FF6FF7300937F
:101190001F230A2211462B48FFF7C8FB00230293A6
:1011A00048E003F140026A44002102F8341C013394
:1011B000312BF6DD244C4FF0FF31206804F02AF982
:1011C00000231A4603A92148006804F013FA206896
:1011D00004F054F905EB8504A40023344FF6FF76A0
:1011E00000961F23224601211948FFF79FFB009616
:1011F0001F232246192103A8FFF798FB4FF4FA702A
:1012000004F032F80135029B9D4201D20023CFE762
:10121000029B5BB90120FFF7E3FA4FF6FF730093DF
:101220001F230A2211460748FFF780FB41F658307A
:1012300004F01AF8054B186804F01DFA0290002516
:10124000E1E700BFB4AE070898080020940800202A
:10125000CCAE070800B583B000238DF8073005E059
:1012600000238DF80730642003F0FEFF01210E48B3
:1012700000F010FA0128F3D19DF80730002BEFD1D0
:101280000A4C4FF0FF31206804F0C4F800231A46DE
:1012900007490848006804F06BF9206804F0EEF88C
:1012A00001238DF80730DEE7000002409808002097
:1012B000D0AE070894080020DFF834D00D480E495E
:1012C0000E4A002302E0D458C4500433C4188C42A0
:1012D000F9D30B4A0B4C002301E013600432A24205
:1012E000FBD3FFF73DFF06F059FCFFF78DFD70477C
:1012F0000000022000000020740800201CAF070836
:1013000074080020405A0020FEE7000010B5044693
:101310000E4B18784FF47A73B3FBF0F30C4A106855
:10132000B0FBF3F000F0B0F868B90F2C01D9012040
:101330000AE0002221464FF0FF3000F05FF8054B35
:101340001C60002000E0012010BD00BF0400002050
:10135000000000200800002008B50B4B1A6842F47A
:1013600000721A601A6842F480621A601A6842F4C5
:1013700080721A60032000F02FF80F20FFF7C6FFDD
:10138000FFF7C0FD002008BD003C0240034A116881
:10139000034B1B780B441360704700BF9C0900206F
:1013A00004000020014B1868704700BF9C09002012
:1013B00038B50446FFF7F6FF0546B4F1FF3F02D00B
:1013C000044B1B781C44FFF7EDFF401BA042FAD3EF
:1013D00038BD00BF04000020074AD36823F4E0634F
:1013E0001B041B0C000200F4E060034343F0BF63E6
:1013F00043F40033D360704700ED00E000B5194BB3
:10140000DB68C3F30223C3F1070CBCF1040F28BF50
:101410004FF0040C03F1040EBEF1060F18D9033B84
:101420004FF0FF3E0EFA0CFC21EA0C0199400EFA37
:1014300003F322EA0303194300280BDB0901C9B2B5
:1014400000F1604000F5614080F800135DF804FB96
:101450000023E5E700F00F000901C9B2024B19545F
:10146000F4E700BF00ED00E014ED00E0002807DB2A
:1014700000F01F02400901239340024A42F8203045
:10148000704700BF00E100E00138B0F1807F0BD26F
:101490004FF0E0235861054AF02182F82310002024
:1014A000986107221A6170470120704700ED00E043
:1014B00000230F2B00F2E48070B582B060E08568F5
:1014C0005E000324B44025EA0405CC68B4402C43F4
:1014D0008460456825EA02054C68C4F300129A400E
:1014E0002A4342605AE0DC08083450F8246003F0D4
:1014F000070295000F22AA4026EA020E0A69AA40B6
:1015000042EA0E0240F824205CE0072200E00022BC
:1015100002FA0EF22A4302345A4D45F824205A4A60
:1015200094686FEA0C0224EA0C054E6816F4801FDA
:1015300001D04CEA0405544CA560E46802EA0405B5
:101540004E6816F4001F01D04CEA04054E4CE560CD
:10155000646802EA04054E6816F4003F01D04CEAC4
:101560000405494C6560246822404D6815F4803FAD
:1015700001D04CEA0402444C226001330F2B7DD889
:1015800001229A400C6804EA020C32EA0404F4D105
:101590004C6804F00304013C012C90D94A6802F025
:1015A0000302032A09D0C4685D000322AA4024EA8A
:1015B00002048A68AA402243C2604A6802F0030219
:1015C000022A90D004684FEA430E032202FA0EF278
:1015D00024EA02044A6802F0030202FA0EF22243ED
:1015E00002604A6812F4403FC7D000220192274AA5
:1015F000546C44F480445464526C02F4804201926E
:10160000019A9C08A51C1F4A52F8255003F00302BA
:101610004FEA820E0F2202FA0EF225EA02051C4A58
:1016200090423FF474AF02F5806290421AD002F506
:101630008062904218D002F58062904216D002F586
:101640008062904214D002F58062904212D002F57E
:101650008062904210D002F5806290423FF455AF14
:10166000082255E7012253E7022251E703224FE700
:1016700004224DE705224BE7062249E702B070BD80
:10168000704700BF00380140003C01400038024074
:10169000000002400369194201D001207047002078
:1016A00070470AB181617047090481617047F8B5DC
:1016B0000668346A04F00F07C4F34343C4F30A1402
:1016C000022B00D0F8BD0546002CFBD02C2303FBD9
:1016D0000703596C0029F5D02C2303FB07031A6D6F
:1016E0002244DB6C9A4206D92C2000FB07550423C8
:1016F00085F86030E6E72246304601F0AEFE2C2346
:1017000003FB07535A6C22445A641A6D22441A652B
:1017100006EB4716D6F81025C2F3C942B3F840309D
:10172000A342CFD1002ACDD0D6F8003523F0804394
:1017300043F00043C6F800352C2303FB075595F80A
:10174000543083F0010385F85430BBE7F0B585B021
:1017500004469DF828509DF82C60BDF8307090F834
:10176000F802012837D0012084F8F8022C2000FB71
:1017700001404FF0000C80F83DC080F83830A0F8F0
:10178000407080F8391080F83F6002F07F0C80F8DC
:101790003AC012F0800F16D12C2000FB01404FF010
:1017A000000C80F83BC02C2000FB014080F83C502E
:1017B000029701960095206801F09FFF002384F8AE
:1017C000F83205B0F0BD2C2000FB01404FF0010CB9
:1017D00080F83BC0E7E70220F3E790F8F832012BEE
:1017E0000BD010B50446012380F8F832006802F0EF
:1017F0001DF8002084F8F80210BD02207047002870
:101800004DD070B58AB00446056890F8F932002BC7
:1018100040D0032384F8F932EB6B13F4807F01D1BD
:1018200000232361206801F0ACFDA4465CF8106B36
:10183000EE46BCE80F00AEE80F00BCE80F00AEE8D3
:101840000F009CE803008EE80300251D95E80E00BC
:10185000304601F04BFD0121206801F030FEA44626
:101860005CF8106BEE46BCE80F00AEE80F00BCE879
:101870000F00AEE80F009CE803008EE8030095E837
:101880000E00304601F04CFE012384F8F9320020AE
:101890000AB070BD80F8F83206F040F8B9E70120D0
:1018A000704770B59DF81050BDF818604FF02C0CC3
:1018B0000CFB010C8CF83B208CF83F307DB9644662
:1018C0004FF0030C84F842C09DF81CC084F83DC062
:1018D000032B00F28180DFE803F00A7929512C24E0
:1018E00004FB01044FF0020C84F842C0F0E7012D24
:1018F00072D1002A70D12EB92C2303FB01030122DF
:1019000083F855202C2303FB010393F8553033B99A
:101910002C2303FB0103002283F842205CE02C23EC
:1019200003FB0103022283F8422055E092B92C23E5
:1019300003FB010393F855302BB92C2303FB010360
:1019400083F8422048E02C2303FB0103022283F8A2
:10195000422041E02C2303FB010393F8543033B9B8
:101960002C2303FB0103002283F8422034E02C23C4
:1019700003FB0103022283F842202DE092B92C23BD
:1019800003FB010393F855302BB92C2303FB010310
:1019900083F8422020E02C2303FB0103022283F87A
:1019A000422019E02C2303FB010393F8543033B990
:1019B0002C2303FB0103002283F842200CE02C239C
:1019C00003FB0103022283F8422005E02C2303FBE2
:1019D0000103002283F842202C2301FB03F3C218E9
:1019E000059C5464D664002482F86040146582F833
:1019F000391082F8614003F13801027C014400682B
:101A000001F09AFF70BD30B583B004460568D5F883
:101A100040340193D5F840340093009B23F02E030B
:101A20000093019B13F0020F07D0019B13F0010FED
:101A300025D1009B43F002030093019B13F0080F94
:101A400010D0009B43F008030093019B13F0040F98
:101A50002DD0A369022B15D0E368012B22D020469C
:101A600005F0BEFF019B13F0200F03D0009B43F055
:101A700020030093009BC5F8403403B030BD05F04F
:101A80009DFFD6E7019B03F4C023B3F5802F04D05C
:101A90000121206801F0C0FDE1E70221206801F08A
:101AA000BBFDDCE74EF66022C5F80424D7E72046EC
:101AB00005F09CFFD6E7F8B504460E46076807EB2D
:101AC000411707F5A065AB6813F0040F0AD1AB68A6
:101AD00013F4807F49D1AB6813F0200F52D020233C
:101AE000AB600AE00423AB602C2303FB0103062256
:101AF00083F86120006801F099FEAB6813F4007F61
:101B000071D1AB6813F0010F00F09D80236943B1E0
:101B10002C2303FB06439A6C2969C1F31201521A64
:101B20001A652C2303FB0643012283F86120002160
:101B3000D965AA6093F83F30002B5CD0022B5AD0B5
:101B4000032B01D0012B5CD1D7F8003543F00053B3
:101B5000C7F800352C2303FB0643012283F86020DD
:101B60003146204605F036FF4BE04FF48073AB6002
:101B70002C2303FB0103072283F86120006801F096
:101B800055FEBAE7AB6813F0080F13D1AB6813F436
:101B9000806F1BD1AB6813F0800FAED08023AB6099
:101BA0002C2303FB0103062283F86120006801F067
:101BB0003DFEA2E70823AB602C2303FB01030522B3
:101BC00083F86120006801F031FE96E74FF48063EE
:101BD000AB602C2303FB0103082283F8612000681B
:101BE00001F024FE89E73146206801F01FFE4FF422
:101BF0000073AB60F8BD3146206801F017FE10237A
:101C0000AB602369012B09D02C2101FB064494F819
:101C1000543083F0010384F85430EBE72C2303FBAA
:101C200006439A6CB3F84030B2FBF3F313F0010FA4
:101C3000E0D02C2303FB064494F8543083F00103D6
:101C400084F85430D6E7AB6813F0020F60D02C2331
:101C500003FB064393F86130012B13D0052B23D0EF
:101C6000062B28D0082B26D0032B42D0072B0FD1D0
:101C70002C2303FB0643DA6D0132DA65042283F874
:101C8000602005E02C2303FB0643012283F860203B
:101C90000223AB602C2303FB064393F860203146FC
:101CA000204605F097FEA5E72C2303FB06430522FB
:101CB00083F86020ECE72C2202FB0642D36D01334F
:101CC000D365022B06D913460022DA65042283F875
:101CD0006020DDE72C2303FB0643022283F860200B
:101CE000D7F8003523F0804343F00043C7F80035B0
:101CF000CEE72C2303FB0643022283F86020D7F8AB
:101D0000003523F0804343F00043C7F80035BFE7B8
:101D1000AB6813F0100F3FF46DAF2C2303FB0643A9
:101D200093F83F30032B0CD00BB1022B06D12C23A0
:101D300003FB06430022DA65236963B11023AB601D
:101D400058E72C2303FB06430022DA65314620685E
:101D500001F06CFDF2E72C2303FB0643032283F81A
:101D600061203146206801F061FDE7E738B503687E
:101D700003EB411202F5A065AC6814F0040F19D111
:101D8000AC6814F0200F21D02023AB602C2303FB80
:101D9000010393F83D30012B17D12C2303FB0103E2
:101DA000002283F83D20022283F86020006801F0C1
:101DB0003DFD0AE00423AB602C2303FB0103062254
:101DC00083F86120006801F031FD38BDAC6814F47F
:101DD000007F1FD1AC6814F0010F22D02C2303FB2D
:101DE00001030022DA65AB6813F0400F07D02C2303
:101DF00003FB0103012283F83D204023AB60012255
:101E0000AA602C2303FB010383F86120006801F022
:101E10000DFDDAE74FF40073AB60006801F006FDDA
:101E2000D3E7AC6814F0400F24D1AC6814F0080F6D
:101E300031D1AC6814F0100F39D02C2202FB010212
:101E40000024D465032482F8614092F83D205AB9F9
:101E50002C2202FB010292F83C202AB92C2202FB20
:101E60000102012082F83D00184601F0DFFC10233A
:101E7000AB60AAE72C2202FB0100042280F861205B
:101E8000012280F83D200022C265184601F0CEFCF8
:101E90004023AB6099E70823AB602C2303FB0103CD
:101EA000052283F86120006801F0C0FC8DE7AC6872
:101EB00014F0800F25D0026982B12C2202FB0102AE
:101EC000D36D0133D365022B12D82C2303FB0103FE
:101ED000022283F860208023AB6076E72C2202FB8D
:101EE0000102062082F86100184601F09FFCF2E72B
:101EF00013460022DA65042283F8602005F06AFDAB
:101F0000E9E7AC6814F4806F23D1AB6813F0020FDB
:101F10003FF45BAF2C2303FB010393F86130012BEB
:101F200024D0032B56D0042B64D0052B69D0062B6C
:101F300001D0082B54D12C2404FB0104E36D0133A0
:101F4000E365022B64D90022E265042284F8602054
:101F500046E02C2202FB0102082082F861001846AC
:101F600001F064FC4FF48063AB602EE72C2303FB8D
:101F70000103012283F8602093F83F30023BDBB27B
:101F800093422DD8046944B92C2303FB010393F831
:101F9000552082F0010283F85520012C20D12C23FA
:101FA00003FB0103DB6CDBB12C2202FB0102B2F864
:101FB00040201344013BB3FBF2F313F0010F0FD0A9
:101FC0002C2303FB010393F8552082F0010283F8D0
:101FD000552005E02C2303FB0103022283F8602037
:101FE0000223AB602C2303FB010393F8602005F070
:101FF000F1FCEAE62C2303FB0103022283F86020B4
:10200000EEE72C2303FB0103052283F86020E7E7BA
:102010002C2303FB0103022483F86040D2F800352F
:1020200023F0804343F00043C2F80035D8E7F8B509
:1020300004460568284601F03EFA012800D0F8BDA4
:10204000206801F034FA0028F9D0206801F02FFA56
:1020500010F4001F03D023684FF400125A61206867
:1020600001F025FA10F4801F03D023684FF480128A
:102070005A61206801F01BFA10F0806F03D02368CA
:102080004FF080625A61206801F011FA10F0020FDF
:1020900002D0236802225A61206801F008FA10F089
:1020A000005F08D023684FF000525A61D5F84034E1
:1020B00013F0010F1DD0206801F0F9F910F0807FB6
:1020C00026D1206801F0F3F910F0080F24D1206820
:1020D00001F0EDF910F0100F25D1206801F0E7F9BB
:1020E00010F0007FABD0206801F09BFB0746002674
:1020F0002CE01021284601F04BF9284601F070F938
:102100000121206801F088FA204605F05DFCD2E745
:102110002046FFF778FCD4E7204605F049FC236809
:1021200008225A61D3E72268936923F01003936170
:102130002046FFF7BCFA2268936943F010039361CD
:10214000CBE7F1B22046FFF711FE0136A368B34298
:1021500012D906F00F0327FA03F313F0010FF4D09E
:1021600005EB4613D3F8003513F4004FE9D0F1B274
:102170002046FFF7A0FCE8E723684FF000725A61A1
:102180005DE790F8F832012B0ED010B5044601211E
:1021900080F8F812006801F07DFA206801F0EBF891
:1021A000002084F8F80210BD0220704790F8F83241
:1021B000012B0BD010B50446012380F8F8320068DB
:1021C00001F070FC002084F8F80210BD0220704776
:1021D00008B5006801F03FFA08BD2C2303FB01009D
:1021E00090F8600070472C2303FB0100006D7047DE
:1021F00008B5006801F07CFA08BD08B5006801F078
:102200006CFA08BD002800F0CC8070B5044690F848
:102210003D30002B77D0242384F83D3022681368AA
:1022200023F0010313602268136843F40043136032
:102230002268136823F40043136000F0DBFE626839
:102240005A4B9A4264D85A4B98428CBF00230123C0
:10225000002B40F0A8805749A1FB00318B0C25686A
:102260006A6822F03F0242EA91426A6021680A6A83
:1022700022F03F0266684D4DAE424FD80133134302
:102280000B622168CA6922F44F4222F0FF0266689D
:10229000464B9E424CD8431E7600B3FBF6F3013307
:1022A00040F6FC70034278D0C3F30B031343CB61B9
:1022B00021680B6823F0C003E269206A02431343DC
:1022C0000B6021688B6823F4034323F0FF0322692A
:1022D000E068024313438B602168CB6823F0FF035F
:1022E0006269A06902431343CB602268136843F01C
:1022F0000103136000202064202384F83D30206314
:1023000084F83E0070BD80F83C30FEF71DFE82E789
:10231000294B98428CBF0023012399E74FF496750F
:1023200005FB03F3254DA5FB03539B090133A6E7EA
:10233000A368BBB9451E06EB460CB5FBFCF50135A1
:10234000C5F30B05B5FA85F56D0945BBC3B9013871
:1023500006EB4603B0FBF3F30133C3F30B0343F483
:102360000043A3E7451E06EB860C0CEB8C0CB5FB7B
:10237000FCF50135C5F30B05B5FA85F56D09E4E704
:10238000013806EB860303EB8303B0FBF3F3013361
:10239000C3F30B0343F4404388E7042386E7012398
:1023A00084E7012070470120ACE700BFA086010050
:1023B0007F841E0083DE1B43FF083D00D34D621067
:1023C000002800F0BF8038B5044690F84130002B5B
:1023D00051D0022284F841202168CB6923F47B6329
:1023E00023F00F03CB6123681A626369934263D0C1
:1023F000E368002B46D11025A368202B00D86D0080
:10240000012000F0B1FE2369B3F5007F3CD0B0FBA2
:10241000F5F000EB800043006069B3FBF0F3053397
:10242000494AA2FB0323C3F3C002C2EBD3035B08F8
:1024300011029A1EFD2A41D822690A4321681343DA
:102440000B622168CB6923F47B6323F00F0362687E
:10245000A0680243E0680243A0690243134343F4C7
:102460000063CB61236A012B2ED00020606401231E
:1024700084F8413038BD80F84030344B4363FEF778
:102480009BFDA6E72025B7E7E36853B1AD00B0FB9D
:10249000F5F000EB800043006069B3FBF0F3053317
:1024A000BEE7ED00B0FBF5F000EB80004300606993
:1024B000B3FBF0F30533B3E70021BAE7636C43F0F5
:1024C000100363640120D5E7214B63632268214B2D
:1024D0009A421FD04FF04022D36923F47B6323F04C
:1024E0000F03D36122681B4B9A4215D04FF0402353
:1024F00002221A622268174B9A4210D04FF04025F0
:10250000EB699BB26268B2F5007F0AD0C2B94FF4A2
:10251000807008E0104ADFE7A3F58063E8E70E4D1E
:10252000EEE74FF48070B4F808C0A189228B40EA2E
:102530000C0001430A43134343F40063EB6194E747
:102540000020F0E701207047CDCCCCCCD32500088B
:10255000E52700080038004000340040704708B507
:10256000426A03681288DA60436A02334362438D29
:102570009BB2013B9BB24385438D9BB203B108BD27
:102580000268536823F0A0035360012380F84130B0
:10259000FFF7E4FFF3E7704708B50368DA68C36A3A
:1025A0001A80C36A0233C362438E9BB2013B9BB263
:1025B0004386438E9BB203B108BD0268536823F083
:1025C00060035360012380F84130FFF7E4FFF3E735
:1025D000704710B584B0044602689368039390F87E
:1025E0004130DBB2042B06D094F84130DBB2032B30
:1025F0002CD004B010BD039B13F0010F03D053681F
:1026000013F0400F1FD1039B13F0400FECD0236851
:102610005A6812F0200FE7D05A6822F060025A6020
:10262000002301932368DA6801929B680193019B60
:10263000012384F84130636C43F002036364204655
:10264000FFF7C6FFD0E7FFF7A7FFDCE7039B13F018
:10265000020F04D023685B6813F0800F1DD1039B29
:1026600013F0080FC5D023685A6812F0200FC0D0AD
:102670005A6822F0A0025A600023029323689B68E4
:102680000293029B012384F84130636C43F00403FE
:1026900063642046FFF79CFFABE72046FFF75FFF30
:1026A000DDE7704708B5436A9A1C426202681B88DE
:1026B000D360438D9BB2013B9BB24385438D9BB25C
:1026C0003BB90268536823F0A0035360438E9BB26A
:1026D00003B108BD012380F84130FFF7E2FFF8E7BE
:1026E00008B50268154B9A421CD04FF04023DA68B7
:1026F000C36A991CC1621A80438E9BB2013B9BB294
:102700004386438E9BB263B902680C4B9A420CD04D
:102710004FF04022536823F060035360438D9BB217
:102720002BB108BDA3F58063E1E7054AF2E7012379
:1027300080F84130FFF7B5FFF3E700BF00380040F5
:102740000034004008B5436A9A1C42621A88016846
:10275000134B994218D04FF04023DA60438D9BB25F
:10276000013B9BB24385438D9BB263B902680C4B1E
:102770009A420CD04FF04022536823F0A0035360DC
:10278000438E9BB22BB108BDA3F58063E5E7054AF4
:10279000F2E7012380F84130FFF783FFF3E700BF42
:1027A000003800400034004008B50368DA68C36AA6
:1027B000991CC1621A80438E9BB2013B9BB2438637
:1027C000438E9BB23BB90268536823F060035360A9
:1027D000438D9BB203B108BD012380F84130FFF760
:1027E00060FFF8E710B586B0044603689A68059262
:1027F000704A93426FD04FF04022916804915B6819
:102800000393536802936368B3F5007F01D0002BF4
:1028100070D1059B13F0020F03D0039B13F0800FC0
:102820005CD1049B13F0010F03D0029B13F0400F07
:1028300058D1049B13F0400F24D0029B13F0200FBB
:1028400020D022685B4B9A4250D04FF04022536810
:1028500023F0600353602268536823F0A0035360A1
:10286000002300932368DA6800929B680093009B22
:10287000012384F84130636C43F002036364204613
:10288000FFF7A6FE059B13F0080F22D0039B13F061
:10289000200F1ED02268536823F0A00353602268E3
:1028A000444B9A4224D04FF04022536823F06003F7
:1028B00053600023019323689B680193019B0123CC
:1028C00084F84130636C43F0040363642046FFF7EF
:1028D0007FFE06B010BDA2F580628EE72046FFF7AE
:1028E000E1FE9EE72046FFF7FBFEA2E7324AAEE795
:1028F000314ADAE7049B13F0020F03D0029B13F076
:10290000800F4AD1059B13F0010F03D0039B13F0F6
:10291000400F46D1059B13F0400F1CD0039B13F0D2
:10292000200F18D02268536823F060035360226898
:10293000204B9A4239D04FF04022536823F0A00335
:102940005360012384F84130636C43F002036364F5
:102950002046FFF73DFE049B13F0080FB9D0029B01
:1029600013F0200FB5D02268124B9A421FD04FF0BF
:102970004022536823F0A00353602268536823F079
:1029800060035360012384F84130636C43F0040317
:1029900063642046FFF71CFE9BE72046FFF7D2FE4C
:1029A000B0E72046FFF700FFB4E7034AC5E7024A55
:1029B000DFE700BF0038004000340040002800F08E
:1029C000E08170B582B00446036813F0010F3BD07C
:1029D0009F4B9B6803F00C03042B2CD09C4B9B68F3
:1029E00003F00C03082B21D06368B3F5803F4FD070
:1029F000B3F5A02F52D0964B1A6822F480321A6099
:102A00001A6822F480221A606368002B50D0FEF707
:102A1000C9FC05468E4B1B6813F4003F14D1FEF72A
:102A2000C1FC401B6428F5D90320B1E1884B5B68E9
:102A300013F4800FD8D0864B1B6813F4003F03D0EB
:102A40006368002B00F09F81236813F0020F54D0BD
:102A50007F4B9B6813F00C0F3ED07D4B9B6803F0BF
:102A60000C03082B33D0E368002B68D0794B01228C
:102A70001A60FEF797FC0546754B1B6813F0020FB2
:102A800054D1FEF78FFC401B0228F5D903207FE1CB
:102A90006F4A136843F480331360B5E76C4B1A68D0
:102AA00042F480221A601A6842F480321A60ABE75E
:102AB000FEF778FC0546664B1B6813F4003FC3D055
:102AC000FEF770FC401B6428F5D9032060E1604BE1
:102AD0005B6813F4800FC6D15D4B1B6813F0020FC7
:102AE00003D0E368012B40F05081594A136823F06A
:102AF000F803216943EAC1031360236813F0080F48
:102B000042D063696BB3534B0122C3F8802EFEF7AA
:102B100049FC05464E4B5B6F13F0020F34D1FEF7B4
:102B200041FC401B0228F5D9032031E1484A1368D3
:102B300023F0F803216943EAC1031360DDE7454B45
:102B400000221A60FEF72EFC0546414B1B6813F06D
:102B5000020FD2D0FEF726FC401B0228F5D9032035
:102B600016E13C4B0022C3F8802EFEF71BFC054605
:102B7000374B5B6F13F0020F06D0FEF713FC401BC0
:102B80000228F5D9032003E1236813F0040F77D05E
:102B90002F4B1B6C13F0805F33D1002301932C4B20
:102BA0001A6C42F080521A641B6C03F0805301933C
:102BB000019B0125284B1B6813F4807F23D0A36859
:102BC000012B34D0052B38D0214B1A6F22F0010293
:102BD0001A671A6F22F004021A67A368002B3DD00F
:102BE000FEF7E0FB06461A4B1B6F13F0020F46D1AF
:102BF000FEF7D8FB801B41F288339842F3D90320BB
:102C0000C6E00025D6E7144A136843F480731360C6
:102C1000FEF7C8FB0646104B1B6813F4807FCED12D
:102C2000FEF7C0FB801B0228F5D90320B0E0084A5C
:102C3000136F43F001031367CFE7054B1A6F42F0A0
:102C400004021A671A6F42F001021A67C5E700BF53
:102C5000003802400000474200700040FEF7A2FB2F
:102C60000646524B1B6F13F0020F08D0FEF79AFB7B
:102C7000801B41F288339842F3D9032088E0EDB9F4
:102C8000A369002B00F08380484A926802F00C028E
:102C9000082A51D0022B17D0454B00221A66FEF7A6
:102CA00081FB0446414B1B6813F0007F42D0FEF7C6
:102CB00079FB001B0228F5D9032069E03B4A136C1D
:102CC00023F080531364DBE7394B00221A66FEF7CA
:102CD00069FB0546354B1B6813F0007F06D0FEF7F5
:102CE00061FB401B0228F5D9032051E0E369226A09
:102CF0001343626A43EA8213A26A5208013A43EA22
:102D00000243E26A43EA0263284A5360284B0122E5
:102D10001A66FEF747FB0446244B1B6813F0007F3E
:102D200006D1FEF73FFB001B0228F5D903202FE058
:102D300000202DE000202BE0012B2BD01B4B5B68EB
:102D400003F48001E269914226D103F03F02216A37
:102D50008A4223D1616A47F6C0721A40B2EB811FE2
:102D60001ED103F44031A26A5208013AB1EB024F7E
:102D700018D103F07063E26AB3EB026F14D1002044
:102D800006E001207047012002E0012000E0002061
:102D900002B070BD0120FBE70120F9E70120F7E751
:102DA0000120F5E70120F3E70120F1E700380240B8
:102DB0000000474208B5314B9B6803F00C03042B1D
:102DC00057D0082B57D12D4B5A6802F03F025B6851
:102DD00013F4800F2AD0294B5968C1F3881C4FEA9D
:102DE0004C11B1EB0C006EEB0E0E4FEA8E1343EA62
:102DF00090638101091A63EB0E03DB0043EA517310
:102E0000C90011EB0C0C43F10003590200234FEAF7
:102E10004C2041EADC51FDF7F3F9184B5B68C3F332
:102E2000014301335B00B0FBF3F025E0134B59681D
:102E3000C1F3881C4FEA4C11B1EB0C006EEB0E0E87
:102E40004FEA8E1343EA90638101091A63EB0E0384
:102E5000DB0043EA5173C90011EB0C0C43F1000392
:102E6000990200234FEA8C2041EA9C51FDF7C8F9F2
:102E7000D3E7034800E0034808BD00BF0038024024
:102E800000127A000024F400002800F09B8070B546
:102E90000D4604464F4B1B6803F007038B4208D2D4
:102EA000CBB24C4A1370136803F007038B4240F017
:102EB0008B80236813F0020F17D013F0040F04D097
:102EC000454A936843F4E0539360236813F0080F76
:102ED00004D0414A936843F4604393603E4A936848
:102EE00023F0F003A1680B439360236813F0010FF4
:102EF00032D06368012B21D09A1E012A25D9364A87
:102F0000126812F0020F61D033498A6822F003027E
:102F100013438B60FEF746FA06462F4B9B6803F07F
:102F20000C036268B3EB820F16D0FEF73BFA801BEE
:102F300041F288339842F0D9032042E0264A1268D1
:102F400012F4003FE0D101203BE0234A126812F066
:102F5000007FD9D1012034E01E4B1B6803F007032A
:102F6000AB4207D9EAB21B4B1A701B6803F0070388
:102F7000AB422DD1236813F0040F06D0164A936894
:102F800023F4E053E1680B439360236813F0080FC8
:102F900007D0114A936823F46043216943EAC103CF
:102FA0009360FFF707FF0C4B9B68C3F303130B4AB7
:102FB000D35CD8400A4B18600A4B1868FEF7A6F994
:102FC000002070BD012070470120FAE70120F8E7DA
:102FD0000120F6E7003C0240003802409CAE0708A2
:102FE0000000002008000020014B1868704700BF57
:102FF0000000002008B5FFF7F7FF044B9B68C3F300
:103000008223034AD35CD84008BD00BF0038024089
:10301000ACAE070830B583B00446036813F0050F63
:1030200006D1236813F0020F2ED1002003B030BD6B
:103030004A4B00229A66FEF7B5F90546484B1B68D5
:1030400013F0006F06D0FEF7ADF9431B022BF5D944
:103050000320EBE76268A3681B0743EA8213404A38
:10306000C2F884303D4B01229A66FEF79BF9054673
:103070003B4B1B6813F0006FD3D1FEF793F9431B52
:10308000022BF5D90320D1E700230193344B1A6CAE
:1030900042F080521A641B6C03F080530193019B31
:1030A000304A136843F480731360FEF77BF90546DA
:1030B0002C4B1B6813F4807F06D1FEF773F9431B7A
:1030C000022BF5D90320B1E7254B1B6F13F4407396
:1030D00014D0E26802F440729A420FD0204B1A6F6B
:1030E00022F440721D490120C1F8400E0020C1F8B1
:1030F000400E1A671B6F13F0010F13D1E36803F43E
:103100004072B2F5407F1ED0154A936823F4F8133D
:10311000936013490B6FE268C2F30B0213430B6712
:10312000002083E7FEF73EF905460D4B1B6F13F0B9
:10313000020FE3D1FEF736F9401B41F28833984283
:10314000F3D9032072E706498A6822F4F81223F0C3
:10315000704323F4407313438B60DAE70000474267
:103160000038024000700040012801D00020704764
:10317000164B9B6813F4000303D0012B23D1144892
:103180007047124B5B6813F4800F14D00F4B5B68D1
:1031900003F03F030F48B0FBF3F30C4AD2F884006E
:1031A000C0F3881003FB00F0D2F88430C3F302733D
:1031B000B0FBF3F07047054B5B6803F03F03064834
:1031C000B0FBF3F3E9E70020704700BF003802408E
:1031D0000080BB0000127A000024F40000285AD0BE
:1031E00010B50446436A33B94368B3F5827F05D00E
:1031F0000023C36102E00023036143610023A36253
:1032000094F85130002B40D0022384F851302268CA
:10321000136823F040031360636803F48273A268A9
:1032200002F404421343E26802F400621343226989
:1032300002F002021343626902F001021343A26921
:1032400002F400721343E26902F038021343226A67
:1032500002F080021343A26A02F400522168134371
:103260000B60638B03F00403626A02F010022168B2
:1032700013434B602268D36923F40063D3610020B9
:103280006065012384F8513010BD84F85030204629
:10329000FDF7F2FEB8E701207047000082B000237E
:1032A0000193019B01330193019A0F4B9A4215D868
:1032B0000369002BF5DA00230193036943F001034E
:1032C0000361019B01330193019A074B9A4208D88D
:1032D000036913F0010FF4D1002000E0032002B0D5
:1032E00070470320FBE700BF400D030084B010B51A
:1032F000044603A880E80E00089B012B1FD1A36B96
:1033000023F48033A363E36823F4840323F04003AE
:10331000E360E36823F44013E3600F9B012B09D0C3
:103320002046FFF7BBFF069B012B1BD0BDE81040DA
:1033300004B07047E36843F48013E360F0E7E368A8
:1033400043F04003E3602046FFF7A8FF0C9B23B93E
:10335000A36B43F48033A363E5E7A36B23F48033CB
:10336000A363E0E7A36843F00603A360A36843F008
:103370002003A360DAE7836843F001038360002041
:103380007047836823F001038360002070470000CA
:1033900082B000230193019B01330193019A0F4BEB
:1033A0009A4215D80369002BF5DA002301938901AD
:1033B00041F020010161019B01330193019A074B08
:1033C0009A4208D8036913F0200FF4D1002000E0DE
:1033D000032002B070470320FBE700BF400D03004D
:1033E00082B000230193019B01330193019A0E4B9C
:1033F0009A4213D80369002BF5DA002301931023B6
:103400000361019B01330193019A074B9A4208D84B
:10341000036913F0100FF4D1002000E0032002B084
:1034200070470320FBE700BF400D030010B59DF877
:10343000084084B903334FEA930E4FF0000C08E0C4
:1034400000EB023303F5805351F8044B1C600CF180
:10345000010CF445F4D3002010BD00B583B08446C0
:1034600008464FEA920E02F00302002305E00CF535
:103470008051096840F8041B01337345F7D39AB1B2
:103480000CF5805CDCF8003001934FF0000C5FFA23
:103490008CF3D900019BCB4000F8013B0CF1010CEF
:1034A000013A92B2002AF2D103B05DF804FB4269FE
:1034B000806910407047406900F00100704738B5DE
:1034C0000546C36823F0C043C360012913D019BB6C
:1034D000C36843F08043C36000240120FDF768FF08
:1034E00001342846FFF7E7FF08B1312CF5D9322C1B
:1034F00014D0002038BDC36843F00053C3600024DB
:103500000120FDF755FF01342846FFF7D4FF0128BD
:10351000EDD0312CF4D9EAE70120EBE70120E9E70F
:1035200084B038B5044605A880E80E000023C4F82E
:10353000003EA36B43F40013A363A36B23F40023A7
:10354000A363A36B23F48023A363E36B13F4807F53
:1035500010D0079B012B06D0D4F8003423F00403CD
:10356000C4F800340CE0D4F8003443F00403C4F889
:10357000003405E0D4F8003423F00403C4F8003428
:1035800010212046FFF704FF054600B10125204623
:10359000FFF726FF00B10125002209E004EB4213EA
:1035A0004FF0FF31C3F808150021C3F80C150132A4
:1035B000069B9342F2D80023A3614FF0FF3363616F
:1035C000E36B13F4807F17D04FF40073636203F151
:1035D0008073A3620D4BC4F80031089B1BB9A3692B
:1035E00043F01003A361A269094B1343A36128466A
:1035F000BDE8384004B070478023636203F5C00320
:10360000A362044BC4F80031E7E700BF0003E00009
:10361000080020A3E000400000F5806CD0F80034E2
:1036200023F00303C0F80034D0F8003401F00302A3
:103630001343C0F80034012903D0022906D000202A
:1036400070474BF68033CCF80430F8E741F27073E2
:10365000CCF80430F3E730B583B00446002501957B
:10366000D0F840340193019B23F02E030193019B7A
:1036700043F48073C0F840346420FDF799FE019B49
:1036800023F48073C4F840340A20FDF791FE2846E5
:1036900003B030BD82B000230193D0F840340193D1
:1036A000019B23F02E030193019B13F4805F01D152
:1036B00001290CD0019B13F4805F05D021B9019B37
:1036C00023F48053C0F84034002002B07047019BBF
:1036D00043F48053C0F84034ECE782B000230193F8
:1036E000D0F8403401930198C0F3414002B07047D4
:1036F00000F58060806880B270472DE9F8439146FC
:103700001C469DF8245000EB411606F5A0634FF0CF
:10371000FF329A60032D76D8DFE805F002670218C1
:1037200040F29D42DA6019F0800F09D1C26B12F4A9
:10373000807F6AD0DA6842F06002DA6000270CE02D
:10374000DA6842F48072DA60002706E040F29D6297
:10375000DA6019F0800F42D10027DA6842F00202E5
:10376000DA60D0F8183401F00F01012202FA01F1F9
:103770001943C0F81814836943F00073836119F08A
:10378000800F44D14FF00008FFF7A7FF9DF82030CD
:10379000022B3FD00021A30503F0FE534FEAC929B5
:1037A00009F4F04943EA0903AC0404F44024234338
:1037B000BDF82820C2F30A02134343EA08030B436F
:1037C000C6F80035032D01D0012D05D1D6F80035FE
:1037D00043F00053C6F800353846BDE8F883DA6890
:1037E00042F48072DA600027B7E740F22522DA60FF
:1037F00019F0800F01D10027AFE7DA6842F4C072F8
:10380000DA600027A9E70127A7E70027A5E74FF41B
:103810000048B9E7022802D04FF40031BBE700218D
:10382000B9E700F58060406980B2704710B483B09A
:103830000023019300EB411101F5A06CD1F8003594
:10384000C3F38143D1F80025846814F0200F02D01F
:10385000D20F002A51D023B3022B22D0D1F8003549
:1038600043F08043C1F80035D0F8103413F47F0FD3
:1038700048D1D1F8003523F00043C1F80035D1F824
:10388000003543F00043C1F80035019B013301933B
:10389000019BB3F57A7F30D8DCF80030002BF4DBE5
:1038A0002BE0D1F8003543F08043C1F80035836840
:1038B00013F0200F21D1C36A13F47F0F17D1D1F871
:1038C000003523F00043C1F80035D1F8003543F04E
:1038D0000043C1F80035019B01330193019BB3F50F
:1038E0007A7F0AD8DCF80030002BF4DB05E0D1F851
:1038F000003543F00043C1F80035002003B05DF807
:10390000044B7047D1F8003543F00043C1F800354F
:10391000F3E7000000EB4111064AC1F81025D1F889
:10392000003523F0804343F00043C1F80035002008
:10393000704700BF0000088030B585B04B78C46B7D
:1039400014F4807F07D00C792CB9012A16D012B953
:103950004C79012C1FD04C690CB30D8904EB050C7C
:103960000CF1FF3CBCFBF5FC1FFA8CFCBCF5807F26
:1039700017D92D020D614FF4807C12E0CC790CB187
:10398000022CE4D100EB4314D4F80C5525F070055B
:10399000C4F80C55DBE74978FFF7BCFF70E04FF047
:1039A000010CCD78002D52D00C8904FB0CF40C6175
:1039B0000C69C4F312043A4D05EACC4C44EA0C04F9
:1039C00091F80AC04FEA4C7C0CF0C04C00EB43135A
:1039D00044EA0C04C3F8104512B1CC68C3F814458E
:1039E00000F5806CDCF8084014F0010F0CBF4FF0BC
:1039F000010E4FF0000ED3F8005525F00055C3F826
:103A00000055D3F8004544EA4E74C3F80045D3F896
:103A100000450394039C24F080440394CC78C4B103
:103A2000039C44F400440394039C44F00044039436
:103A3000039CC3F800451ABBCB780BBB4B69FBB1A9
:103A4000CA79032A15D8DFE802F0091E091E0C61A5
:103A5000AEE7039C24F400440394E5E70333C26A11
:103A600092B2C3F38F039A4203D2836943F02003D7
:103A70008361002300938B8A4A78C968FFF7D6FCDC
:103A8000002005B030BD0333DCF8102092B2C3F340
:103A90008F039A42EDD2836943F080638361E8E744
:103AA0000000F81F30B583B0044600230193FFF7F0
:103AB00068FC10212046FFF76BFC054600B101258C
:103AC0002046FFF78DFC00B1012500220AE004EB3F
:103AD0004211D1F8003523F0802343F08043C1F830
:103AE000003501320F2AF2D9002100E001310F29FF
:103AF00016D804EB411000F5A062D0F8003523F48D
:103B0000004343F04043C0F80035019B013301936B
:103B1000019BB3F57A7FE9D81368002BF5DBE5E765
:103B20004FF0FF33C4F8143463612046FFF723FCE1
:103B3000284603B030BD0020704708B5212202742A
:103B4000202242740022428282820722C28201F035
:103B50006FF908BD08B5A122027421224274002227
:103B6000428282820722C28201F062F908BD38B522
:103B70000446D0F87C33D9694031FFF7EBFF0546A6
:103B800020B9D4F8D433022120469847284638BDBE
:103B900038B50446D0F87C33DD69297879B9297BBA
:103BA000B1B9697BF1B9D4F87C33D86928B104F094
:103BB00021F8D4F87C330022DA61002038BD01F00E
:103BC0009BFA2978204601F0AFFA00232B70E6E734
:103BD000204601F091FA297B204601F0A5FA002346
:103BE0002B73DEE7204601F087FA697B204601F05F
:103BF0009BFA00236B73D6E7F0B585B0044601232A
:103C00000222114600F0B7FB012800F2AE80064602
:103C10000146204600F0A5FB0746002840F0A98099
:103C2000D4F87C53502003F0DDFFE861D4F87C33F6
:103C3000DD69002D00F09F8050220021284604F00D
:103C400091FA1A2303FB064393F84E2393F94E335C
:103C5000002B72DB6978204601F053FA0146287088
:103C60006A786B8902930323019394F81D330093C0
:103C700094F81C33204601F02FFA002229782046C0
:103C800003F00EFF00231A460A21204600F073FBC2
:103C9000012872D81A2303FB004393F84E2393F9AB
:103CA0004E33002B51DBAA731A2303FB0043B3F8F6
:103CB00050332B831A2303FB004393F8562393F9C5
:103CC0005633002B49DBAA731A2303FB0040B0F8DC
:103CD00058332B83A97B204601F013FA6873E97BE4
:103CE000204601F00EFA2873AA7B697B2B8B029386
:103CF0000226019694F81D33009394F81C33204655
:103D000001F0EAF9EA7B297B6B8B0293019694F828
:103D10001D33009394F81C33204601F0DDF9002692
:103D200085F84C603246697B204603F0B9FE324686
:103D3000297B204603F0B4FE18E06A701A2000FBCD
:103D40000646B6F850336B8184E7EA731A2303FB07
:103D50000043B3F850336B83ACE7EA731A2303FBD9
:103D60000040B0F858336B83B4E70227384605B0FB
:103D7000F0BD0227FAE70227F8E70227F6E77047C7
:103D800030B583B00446D0F87C33DD6995F84D300A
:103D9000012B03D0022B19D003B030BD686A2A8BE7
:103DA00090420AD96B7BE96901200090204601F01E
:103DB0005AF9022385F84D30EEE76B7BE969012261
:103DC000009282B2204601F04EF9F2E7697B03F0DF
:103DD00053FE012810D00228DED1012385F84D3092
:103DE0000423C4F8E03300231A4604F57871D4F8AC
:103DF000D80301F0BDFBCFE76B6A2A8B934215D93C
:103E00009B1A6B62EB691344EB616B6A8BB1012304
:103E100085F84D300423C4F8E03300231A4604F536
:103E20007871D4F8D80301F0A3FBB5E700236B62E7
:103E3000EBE7002385F84D302046FFF7A0FFE9E7C8
:103E4000704738B50446D0F87C33DD6995F84E30BC
:103E5000032B02D0042B09D038BD2B7B6A8B296A37
:103E600001F017F9042385F84E30F5E7297B03F0BC
:103E700003FE0128F0D1297B204603F0F7FDAB6A51
:103E800083420BD06A8B824208D21B1AAB622B6A28
:103E900018442862032385F84E3005E0002385F896
:103EA0004E302046FFF7CCFF0423C4F8E033002354
:103EB0001A4604F57871D4F8D80301F059FBCBE722
:103EC000704770B50446D0F87C33DE6996F84C50E4
:103ED000042D04D8DFE805F03F0513394100012522
:103EE00039E0B16CFFF729FE18B9022386F84C308F
:103EF00031E001283AD0042386F84C302BE006F15B
:103F00004001FFF727FE0546C0B9002386F84C3074
:103F1000736C23F07F42B16C4B6823F07F439A426D
:103F200001D0012517E0326C0B689A4201D00125BF
:103F300011E02046FFF7C4FF01250CE001280AD05C
:103F4000042386F84C30012505E0FFF719FF2046D1
:103F5000FFF777FF0125284670BD002101F03AF8F0
:103F600030B9002386F84C300125F4E70546F2E726
:103F70000125F0E78446002306E003F1E0020CEBA4
:103F800082020021516001330F2BF6D9002305E096
:103F90000CEB0302002182F81C110133B3F5007F02
:103FA000F6D300208CF800008CF8010001238CF877
:103FB0000230CCF8C4038CF8183040228CF806206C
:103FC0008CF819008CF81C038CF81D338CF81F0337
:103FD0008CF81E03704708B50378DBB20B2B00D0BA
:103FE00008BDD0F87C33002BFAD09B699847F7E7DF
:103FF00070B584B004464578072D00F26381DFE890
:1040000015F00800480069009A00BF00E5001F0194
:104010004E01082100F064FF18B1032821D00125CA
:1040200040E194F82D33A3710125657002930026B9
:10403000019694F81D33009394F81C338022217963
:10404000204601F049F8A3790293019694F81D33B4
:10405000009394F81C3332466179204601F03CF815
:1040600020E194F81E330133DBB284F81E33032BB6
:1040700003D90D232370012514E16179204601F055
:1040800053F82179204601F04FF8002323700125D1
:1040900008E1122100F024FF10B90223637001E14E
:1040A000032840F0FF8094F81E330133DBB284F81C
:1040B0001E33032B02D90D232370F3E061792046D0
:1040C00001F032F82179204601F02EF800236370C8
:1040D0002370E7E0012100F04AFF18B1032824D043
:1040E0000125DFE0022003F0F0FC012584F81C53D9
:1040F00003236370A37902930026019694F81D337D
:1041000000932B4680222179204600F0E5FFA37919
:104110000293019694F81D33009394F81C333246B1
:104120006179204600F0D8FFBCE00D232370002306
:1041300063700125B6E0092100F0EBFE18B90423F5
:1041400063700125AEE0032801D00125AAE094F8B0
:104150001E330133DBB284F81E33032B03D90D2346
:10416000237001259EE06179204600F0DDFF217972
:10417000204600F0D9FF002363702370012591E0F1
:10418000B0F83A1300F0C5FE18B905236370012595
:1041900088E0032801D0012584E094F81E33013320
:1041A000DBB284F81E33032B03D90D2323700125C2
:1041B00078E06179204600F0B7FF2179204600F0D1
:1041C000B3FF00236370237001256BE090F8341374
:1041D00039B3FF2300F58E7200F0B1FE18B1032849
:1041E00010D001255EE0062363700523C4F8E03398
:1041F00000231A4604F57871D4F8D80301F0B8F911
:1042000001254FE0062363700523C4F8E033002343
:104210001A4604F57871D4F8D80301F0A9F90125FC
:1042200040E0062343700523C0F8E03300231A461C
:1042300000F57871D0F8D80301F09AF9012531E042
:1042400090F83513E1B1FF2300F58E7200F077FE90
:1042500018B907236370012524E0032801D0012544
:1042600020E0072363700523C4F8E03300231A46D7
:1042700004F57871D4F8D80301F07AF9012511E03A
:10428000072343700523C0F8E03300231A4600F5E6
:104290007871D0F8D80301F06BF9012502E090F8AD
:1042A000365315B9284604B070BDFF2300F58E7251
:1042B000294600F044FE05460028F3D0032803D029
:1042C0000125EFE70125EDE70025EBE778B370B5B1
:1042D0000E46044680F8CC230025C0F87C53C0F875
:1042E0008053FFF747FE84F8235384F8205384F863
:1042F000215384F822530EB1C4F8D4630022042160
:10430000102001F0EAF8C4F8D8030A4A0A4B1360F7
:1043100080235361182393612146084800F046FF2B
:10432000C4F8DC03204603F067FB002070BD0220C8
:10433000704700BFA0090020E0AE07083F47000813
:104340000A4651B1D0F880334BB9591CC0F88013DC
:10435000DE3340F8232000207047022070470220FF
:10436000704790F83C338B4203D980F82413002027
:1043700070470220704710B5044600200BE04FF054
:104380001A0C0CFB0E4E9EF849C39C451CD0FF2B0B
:104390001AD00130C0B2012815D886464FF01A0C49
:1043A0000CFB004C9CF847C38C4501D0FF29F0D191
:1043B0004FF01A0C0CFB0E4C9CF848C39445DED011
:1043C000FF2AE6D1DBE7FF2010BD10B5044603F05D
:1043D0008AFB0121204603F055FB002010BD30B5BB
:1043E00087B0044602238DF8173090F82133DBB2F2
:1043F000012B12D02378DBB20B2B00F2F780DFE821
:1044000013F00F002B005A006E01F5009B004201D3
:10441000BB00CF00E3000C01660103230370E9E752
:1044200094F82033002B00F0E18001252570C8208E
:1044300003F04BFB204603F066FB002284F81C23AC
:10444000C4F8C823C4F8E053134604F57871D4F8CF
:10445000D80301F08DF8C9E094F82333012B0FD075
:10446000D4F8C833B3F57A7F1ED994F81F330133DB
:10447000DBB284F81F33032B13D90D23237004E020
:10448000002384F81F33022323700123C4F8E03390
:1044900000231A4604F57871D4F8D80301F068F8BF
:1044A000A4E000232370F0E70A33C4F8C8330A20DD
:1044B00003F00BFBE9E7D4F8D43313B10421204611
:1044C0009847642003F001FB204603F0BFFA84F80C
:1044D0001D03052323700021204600F012FE6071A9
:1044E0008021204600F00DFE01462071A379029341
:1044F0000025019594F81D33009394F81C33802215
:10450000204600F0E9FDA3790293019594F81D334C
:10451000009394F81C332A466179204600F0DCFDB4
:104520000123C4F8E0332B462A4604F57871D4F809
:10453000D80301F01DF859E02046FFF759FD8DF82A
:1045400017009DF81730002B50D184F8243394F8CD
:104550003733012B0DD0072323700523C4F8E03334
:1045600000231A4604F57871D4F8D80301F000F856
:104570003CE008232370F0E7D4F8D433B3B301212F
:1045800020469847082323700523C4F8E03300230E
:104590001A4604F57871D4F8D80300F0E9FF25E055
:1045A00094F83D13204600F0F3FC08B9092323706A
:1045B0000123C4F8E03300231A4604F57871D4F8D7
:1045C000D80300F0D5FF11E094F83F3313F0200F2B
:1045D0000FD10A2323700123C4F8E03300231A46C5
:1045E00004F57871D4F8D80300F0C2FF002007B0BA
:1045F00030BD0121204600F0DCFC8DF817009DF84D
:10460000173013B90A232370E5E79DF81730DBB2A2
:10461000032BE0D10A232370DDE7D4F880338BB17C
:104620000023C4F87C33CBB1D4F87C3343B39B680C
:104630002046984708BB06232370D4F8D4330321BF
:10464000204698470523C4F8E03300231A4604F5B2
:104650007871D4F8D80300F08BFFC7E703F1DE02CE
:1046600054F82220107994F84713884202D001337D
:10467000DBB2D8E7C4F87C23D6E70D232370E1E74B
:104680000D232370DEE7D4F87C33EBB11B692046A1
:1046900098478DF817009DF817306BB90B232370DE
:1046A0000523C4F8E03300231A4604F57871D4F8E2
:1046B000D80300F05DFF99E79DF81730DBB2022BBD
:1046C000EED10D232370EBE70D232370E8E7D4F838
:1046D0007C33002B8AD05B692046984786E700230D
:1046E00084F821332046FFF745FCD4F87C332BB106
:1046F000DB68204698470023C4F87C33D4F8D433D1
:1047000013B105212046984794F82233DBB2012BE0
:104710000ED0204603F0E7F90123C4F8E03300236C
:104720001A4604F57871D4F8D80300F021FF5DE74C
:10473000002384F822332046FFF747FEECE710B54C
:1047400004464FF0FF33002204F57871D4F8D80303
:1047500000F050FF0028F4D12046FFF740FEF0E7BC
:10476000C0F8C413704708B5D0F8C4230132C0F8AC
:10477000C423FFF730FC08BD08B5012380F82333BC
:10478000C0F8E03300231A4600F57871D0F8D8035A
:1047900000F0EEFE08BD002380F82333704710B50B
:1047A000012380F82033002480F8214380F822433D
:1047B000C0F8E0332346224600F57871D0F8D803DC
:1047C00000F0D6FE204610BD70B50446012680F8E4
:1047D0002163002580F8205380F8235303F08BF9E0
:1047E0002179204600F0A0FC6179204600F09CFC75
:1047F000C4F8E0632B462A4604F57871D4F8D80350
:1048000000F0B6FE284670BD08B50123C0F8E033BD
:1048100000231A4600F57871D0F8D80300F0A8FEFE
:10482000002008BD0B7803704B7843708B7891F8AB
:1048300003C043EA0C2343800B7903714B79437126
:104840008B798371CB79C371202B28D8082B0AD39D
:10485000083BDBB24FF0010C0CFA03F303F0013319
:1048600023F480330BB94023C371082A16D90B7A7D
:104870004A7A43EA022303818B7ACA7A43EA022303
:1048800043810B7B4A7B43EA022383818B7B8373C7
:10489000CB7BC3730B7C03744B7C43747047402BFE
:1048A000E1D1E2E70B7803704B7843708B7883702B
:1048B000CB78C3700B7903714B7943718B7983711A
:1048C000CB79C3710B7A0372704710B586461378A3
:1048D0000B7053784B7093788B7092F803C081F80B
:1048E00003C01379507943EA00238B8094798C714B
:1048F0009BB103F478438B801BB21079527940EA64
:10490000022212F4C06F05D1C2F30A0213438B8056
:10491000002003E04FF40072F8E703209EF81D33F7
:1049200073B90CF0030CBCF1010F03D0BCF1030F01
:1049300000D010BD013CE4B20F2CFAD90320F8E7F7
:104940000CF0030CBCF1010F06D0BCF1030FF0D149
:10495000002CEED16046ECE7013CE4B20F2CE8D924
:104960000320E6E74378032B00D070470378023B2F
:104970009A4228BF1A4692B2002307E000EB030CCC
:104980009CF802C001F801CB02339BB29342F5D3ED
:1049900000230B70E9E730B583B00446057E6B1E3B
:1049A0000A2B00F28981DFE813F00B00150050009C
:1049B0005C0091009E00E600F200270134016C01CA
:1049C000427900F1100100F017FB022323762846FC
:1049D00003B030BD417903F04FF80546012805D0FA
:1049E000042823D0022821D00125F0E7237CE28A85
:1049F0009AB113F0800F0DD1052323760323C4F859
:104A0000E03300231A4604F57871D4F8D80300F097
:104A1000AFFDDCE703232376F0E713F0800F02D12C
:104A200007232376EAE709232376E7E70B23237698
:104A30000323C4F8E03300231A4604F57871D4F850
:104A4000D80300F095FD0125C1E7D0F8C433C38138
:104A500003798289816800F0F6FA04232376012520
:104A6000B5E7017903F008F80546012805D0052DC2
:104A700011D0042D1BD00125A9E709232376032398
:104A8000C4F8E03300231A4604F57871D4F8D8034B
:104A900000F06EFDEBE70325C4F8E05300231A464F
:104AA00004F57871D4F8D80300F062FD8FE70B238A
:104AB00023760323C4F8E03300231A4604F5787103
:104AC000D4F8D80300F054FD012580E701250095B6
:104AD00043798289816800F0A0FAD4F8C433E38175
:104AE0000623237673E7417902F0C6FF05460128C5
:104AF00007D0052813D002281FD004282CD0012568
:104B000065E7072323760323C4F8E03300231A461E
:104B100004F57871D4F8D80300F02AFD57E70C2388
:104B200023760325C4F8E05300231A4604F5787170
:104B3000D4F8D80300F01CFD49E7052323760323AE
:104B4000C4F8E03300231A4604F57871D4F8D8038A
:104B500000F00EFD01253AE70B2323760323C4F86A
:104B6000E03300231A4604F57871D4F8D80300F036
:104B7000FFFC02252BE703790022114600F063FABF
:104B8000D4F8C433E3810823237601251FE7017994
:104B900002F072FF012805D0042812D005281FD08A
:104BA000012514E70D2323760323C4F8E033002303
:104BB0001A4604F57871D4F8D80300F0D9FC002522
:104BC00005E70B2323760323C4F8E03300231A46BA
:104BD00004F57871D4F8D80300F0CAFC0125F6E694
:104BE0000325C4F8E05300231A4604F57871D4F87D
:104BF000D80300F0BDFCEAE60125009543790022C8
:104C0000114600F00AFAD4F8C433E3810A2323766C
:104C1000DDE6417902F030FF012805D0022812D0EC
:104C200004281FD00125D2E60D2323760323C4F8E0
:104C3000E03300231A4604F57871D4F8D80300F065
:104C400097FC0025C3E6092323760323C4F8E03349
:104C500000231A4604F57871D4F8D80300F088FCD4
:104C60000125B4E60B2323760323C4F8E0330023A5
:104C70001A4604F57871D4F8D80300F079FC0125C0
:104C8000A5E6437E0133DBB24376022B03D8012530
:104C9000057685709BE6D0F8D43306219847002529
:104CA00065766179204600F03FFA2179204600F0D0
:104CB0003BFA257002258AE6012588E603780A88F2
:104CC00013440B800378184470472DE9F04383B0F8
:104CD00005460C46097880F83813637880F8393334
:104CE000A378E07843EA0023B3F5807F28BF4FF430
:104CF0008073A5F83A33237985F83C33637985F8D6
:104D00003D33A37985F83E33E37985F83F33237A41
:104D100085F84033092902D0092385F83833092A58
:104D20007FD90923ADF8063000263746012E6FD80B
:104D3000B5F83A23BDF806309A4269D90DF106015B
:104D40002046FFF7BBFF04464378042BEED10378DF
:104D5000092B01D009230370B14605F54E701A23C3
:104D600006FB03F30833184421460230FFF79AFD8F
:104D70004FF0000824E01A2303FB095393F848334B
:104D8000022B3AD11A2303FB095393F8493323B971
:104D90000378092B01D00923037005F54E7308F140
:104DA00001081A2101FB09F101EBC801083119447E
:104DB000224604312846FFF788FD07465FFA88F847
:104DC0001A2303FB095393F8463343451BD9B5F81F
:104DD0003A13BDF80620914215D90DF1060120467F
:104DE000FFF76CFF04464378052BE9D11A2303FB38
:104DF000095393F84733012BBDD02378072BCCD030
:104E000007232370C9E7434510D80136F6B28DE772
:104E100095F83C33022B28BF0223B34202D9032763
:104E200000E00027384603B0BDE8F0830327F9E728
:104E300038B504468578012D04D0022D14D0012503
:104E4000284638BD81608281012303760223837066
:104E50000323C0F8E03300231A4600F57871D0F838
:104E6000D80300F085FBEBE7FFF795FD054630B171
:104E7000032804D0022806D10123A37003E00123F4
:104E8000A370002323760323C4F8E03300231A46DB
:104E900004F57871D4F8D80300F06AFBD0E708B5C0
:104EA0008E4694461946BDF808208378012B02D01F
:104EB000FFF7BEFF08BD6EF07F0E80F810E00623FE
:104EC0004374A0F812C00CF47F4CBCF5407F03D0B3
:104ED00000238382C282EBE740F209438382F9E731
:104EE000F0B583B0044600F58E760D46009133464A
:104EF0004FF480720021FFF7D2FF074610B1384609
:104F000003B0F0BD2A46314604F22630FFF78AFC92
:104F1000F5E770B582B004460D4600F11C0600911D
:104F200033464FF400720021FFF7B9FF08B102B019
:104F300070BD2A4631462046FFF7C7FEF7E7F0B5B9
:104F400083B016461D4600F58E740093234641F447
:104F500040720021FFF7A3FF074610B1384603B0A7
:104F6000F0BD2A4631462046FFF7FCFCF6E708B5BF
:104F70008378012B04D000221146FFF759FF08BDAA
:104F8000002303740522427441828382C382F2E7C4
:104F900008B58378012B04D000221146FFF748FFA3
:104FA00008BD002303740922427441828382C382B4
:104FB000F2E708B58378012B04D000221146FFF7F1
:104FC00037FF08BD002303740322427441828382A9
:104FD000C382F2E708B58378012B04D00022114682
:104FE000FFF726FF08BD0223037401234374002347
:104FF00043828182C382F1E710B584B00B4611462B
:10500000002403940822029201930094234622462E
:1050100002F09CFD204604B010BD30B585B00C46B2
:1050200019469DF8203090F81D5305B100230393D5
:10503000029201940123009300231A4602F086FD98
:10504000002005B030BD30B585B00D4619460024AE
:1050500003940292019501220092234602F076FD0C
:10506000204605B030BD30B585B00C4619469DF8D8
:10507000203090F81D5305B1002303930292019450
:10508000012300930223002202F060FD002005B0FE
:1050900030BD30B585B00D46194600240394029208
:1050A000019501220092022302F050FD204605B036
:1050B00030BD00230F2B0CD803F1E00200EB82027D
:1050C000526812F4004F02D00133DBB2F2E798B21B
:1050D00070474FF6FF70704710B584B0BDF82040A0
:1050E00002949DF81C4001949DF81840009402F031
:1050F00012FD002004B010BD08B502F01FFD002015
:1051000008BD38B504460D46FFF7D3FF4FF6FF73D1
:10511000984207D000F00F0345F40045E03304EB5C
:1051200083035D60C0B238BD0F2906D8E03100EBC3
:1051300081004368C3F30E0343600020704708B545
:1051400002F0A3FB10B102684068904708BD000060
:10515000EFF305832BB9064B186828B901221A60B2
:1051600070476FF0050070474FF0FF30704700BF89
:10517000200C0020EFF3058373B90A4B1B68012B49
:105180000DD110B50024084BDC77064B02221A60C3
:1051900001F042FD204610BD6FF0050070474FF052
:1051A000FF307047200C002000ED00E0F0B587B024
:1051B00000240594EFF3058474BB68B322B315682B
:1051C000936903B918235C1E372C49D8546814F02E
:1051D000010F47D156696EB14FEA960C94682CB115
:1051E000D7685B2F02D9176907B1C6B92CB14FF048
:1051F000FF340EE04FF0800CF0E7D4688CB91469EE
:1052000094B14FF0FF3404E01546002418234FF00A
:10521000800C012C0AD0ACB1059807B0F0BD012478
:10522000F7E74FF0FF34F4E70024F2E714699268DF
:105230000292019400930B466246294601F07CFCE1
:105240000590E9E705AA019200930B461FFA8CF23C
:10525000294601F0ACFC0128DED000230593DBE7F2
:105260000020DAE70020D8E708B5EFF3058333B96B
:1052700008B9002008BD01F033FE0020FAE76FF006
:105280000500F7E72DE9F04383B0EFF30587002F22
:1052900043D10646894615461C4600283FD00820C3
:1052A00000F078FC804600283BD006604560B9F1EC
:1052B000000F00D0012704B32068A36813B1E2688F
:1052C0002B2A10D853B14FF0FF33DBB100244046F6
:1052D00000F0DEFC204603B0BDE8F083E3687BB15C
:1052E0004FF0FF33F1E701930F4B009343463A46EB
:1052F000012102F015F904460CE020460023E4E702
:105300000023E2E7084B009343463A46012102F0AE
:10531000EBF80446002CDDD1D9E70024DAE70024BD
:10532000D8E70446D6E700BF3F510008EFF30583F6
:105330006BB90A4670B100B583B00093042102F046
:1053400019F9012809D1002003B05DF804FB6FF0C2
:10535000050070476FF0030070476FF00200F3E73D
:1053600070B582B0EFF30583002B49D10E46144689
:10537000002849D0884249D34AB1956815B1D3680D
:105380004F2B14D8002D43D1E3680BB139E0002333
:1053900001280ED073BB314600F044FE054685B3AC
:1053A00004B124682146284601F0D4F929E00123FC
:1053B000EEE7B3B903220021012000F0ECFD054621
:1053C000002DECD0002EEAD000231A4619462846BC
:1053D00000F046FE0128E2D0284601F0E5F900255C
:1053E0000FE0A368032200920022114600F089FD1D
:1053F0000546E5E7A268314600F0F1FD0546CEE737
:105400000025284602B070BD0025FAE70025F8E720
:105410000025F6E720B310B582B00C46EFF3058304
:10542000B3B101BB0021019101AA01F01FF90128CC
:105430001CD1019850B14FF0E0234FF08052C3F8D7
:10544000042DBFF34F8FBFF36F8F002002B010BD4C
:1054500001F039F801280CD06CB16FF00100F5E7CC
:105460006FF0030070476FF00300EFE76FF002008A
:10547000ECE70020EAE76FF00200E7E720B300B5B1
:1054800083B0EFF30583A3B10023019301A900F0DA
:1054900012FF01281BD1019898B14FF0E0234FF083
:1054A0008052C3F8042DBFF34F8FBFF36F8F0020DE
:1054B00007E000231A46194600F0D2FD012809D161
:1054C000002003B05DF804FB6FF0030070476FF03D
:1054D0000200F6E76FF00200F3E770B582B0EFF379
:1054E0000583002B3AD1144600283BD000293BD03D
:1054F0006AB393684BB1D2684F2A06D9226922B1A8
:1055000001FB00F56669AE421BD273B14FF0FF3369
:1055100063BB002200F03FFD054605B304B12468DB
:105520002146284601F016F919E0E3688BB9236992
:1055300013B14FF0FF33EBE763696BB14FF0FF330B
:10554000E6E70025009500F0DCFC0546E5E70023D2
:10555000DEE74FF0FF33DBE70023D9E700252846DD
:1055600002B070BD0025FAE70025F8E70025F6E750
:1055700010B582B01C46EFF30583C3B118B329B34D
:105580003CBB0023019301AA00F02EFE012823D189
:10559000019850B14FF0E0234FF08052C3F8042D32
:1055A000BFF34F8FBFF36F8F002002B010BDB0B1BB
:1055B000C1B10023224600F053FD012815D0B4B13B
:1055C0006FF00100F1E76FF00300EEE76FF003000A
:1055D000EBE76FF00300E8E76FF00200E5E76FF03C
:1055E0000300E2E76FF00300DFE70020DDE76FF084
:1055F0000200DAE710B582B01C46EFF30583C3B1B1
:1056000010B321B334BB0023019301AA01F02EF89B
:10561000012822D1019850B14FF0E0234FF0805281
:10562000C3F8042DBFF34F8FBFF36F8F002002B07C
:1056300010BDA8B1B9B1224600F096FE012815D0E0
:10564000B4B16FF00100F2E76FF00300EFE76FF025
:105650000300ECE76FF00300E9E76FF00200E6E714
:105660006FF00300E3E76FF00300E0E70020DEE700
:105670006FF00200DBE748B108B5EFF3058212B125
:1056800001F05BF808BD01F045F8FBE7002070472A
:10569000034B0360034B0B6080231360704700BF14
:1056A000C40B0020C4090020034B0360034B0B60B4
:1056B0004FF480731360704724100020240C0020E6
:1056C00000F1080343604FF0FF328260C360036162
:1056D00000230360704700230361704743684B60F9
:1056E0009A688A60516099600861036801330360B9
:1056F000704730B40D68B5F1FF3F11D000F10803D9
:105700001C465B681A68AA42FAD963684B609960C4
:105710008C606160086103680133036030BC7047CE
:105720000469F2E70369416882688A6041685160F0
:105730005A68824206D0002202611A68013A1A6051
:105740001868704782685A60F5E7000082B000234D
:1057500001930D4B1B68B3F1FF3F08D04FF050038E
:1057600083F31188BFF36F8FBFF34F8FFEE74FF0C6
:10577000500383F31188BFF36F8FBFF34F8F019BEB
:10578000002BFCD002B070472C00002008480068B5
:10579000006880F308884FF0000080F3148862B638
:1057A00061B6BFF34F8FBFF36F8F00DF00BF000004
:1057B00008ED00E0DFF80C00016841F470010160C1
:1057C0007047000088ED00E04FF0807340F8043C23
:1057D00021F0010140F8081C054B40F80C3C40F852
:1057E000202C6FF0020340F8243C4438704700BF7F
:1057F0004D570008000000000000000000000000FD
:10580000074B19680868B0E8F04F80F30988BFF3C8
:105810006F8F4FF0000080F311887047AFF3008066
:10582000E84C00204FF0500383F31188BFF36F8FD3
:10583000BFF34F8F0B4A136801331360012B00D065
:1058400070474FF0E023D3F8043D13F0FF0FF7D07B
:105850004FF0500383F31188BFF36F8FBFF34F8F67
:10586000FEE700BF2C000020094B1B6843B94FF036
:10587000500383F31188BFF36F8FBFF34F8FFEE7A1
:10588000013B034A13600BB983F31188704700BFD3
:105890002C000020000000000000000000000000BC
:1058A000EFF30980BFF36F8F154B1A681EF0100FCE
:1058B00008BF20ED108A20E9F04F10602DE90900A3
:1058C0004FF0500080F31188BFF34F8FBFF36F8FFD
:1058D00001F02CFB4FF0000080F3118809BC19681F
:1058E0000868B0E8F04F1EF0100F08BFB0EC108A47
:1058F00080F30988BFF36F8F704700BFAFF300805C
:10590000E84C002008B54FF0500383F31188BFF333
:105910006F8FBFF34F8F01F0DBF928B14FF0E02319
:105920004FF08052C3F8042D002383F3118808BD83
:105930004FF0E022002313619361054B1B6805497A
:10594000A1FB03139B09013B5361072313617047BC
:1059500000000020D34D62104FF0E023D3F8002D5B
:105960003D4B9A421CD04FF0E023D3F8002D3B4B27
:105970009A421ED030B583B0394B1A78D2B2019218
:10598000FF221A701B78DBB28DF803309DF80330CC
:1059900003F05003334A1370334B07221A601BE0A5
:1059A0004FF0500383F31188BFF36F8FBFF34F8F16
:1059B000FEE74FF0500383F31188BFF36F8FBFF3FF
:1059C0004F8FFEE7284A1368013B13609DF80330B0
:1059D0005B00DBB28DF803309DF8033013F0800FCD
:1059E000F0D1214B1B68032B08D04FF0500383F3F9
:1059F0001188BFF36F8FBFF34F8FFEE71B021A4A68
:105A0000136003F4E0631360019BDBB2144A13706C
:105A10004FF0E024D4F8203D43F47003C4F8203D57
:105A2000D4F8203D43F07043C4F8203DFFF780FFD9
:105A300000250E4B1D60FFF7BDFED4F8343F43F048
:105A40004043C4F8343FFFF7A1FE01F06FFAFFF7BF
:105A50007DFE284603B030BD71C20F4170C20F41B8
:105A600000E400E080100020841000202C000020C2
:105A7000EFF305830F2B0FD9114A9B5CDBB2114A60
:105A800012789A4208D94FF0500383F31188BFF37C
:105A90006F8FBFF34F8FFEE74FF0E023D3F80C3D3D
:105AA00003F4E063084A1268934208D94FF05003A8
:105AB00083F31188BFF36F8FBFF34F8FFEE77047FB
:105AC000F0E300E08010002084100020124A12F061
:105AD000070F1ED0D11D21F00701C1F570531344EB
:105AE0000A460E480260002141601344083B23F03F
:105AF00007030B48036059601960991A51601360DD
:105B0000084B1960084B1960084B4FF000421A60AF
